{
  "contractName": "EcommerceStore",
  "abi": [
    {
      "constant": false,
      "inputs": [
        {
          "name": "_name",
          "type": "string"
        },
        {
          "name": "_category",
          "type": "string"
        },
        {
          "name": "_imageLink",
          "type": "string"
        },
        {
          "name": "_desc",
          "type": "string"
        },
        {
          "name": "_price",
          "type": "uint256"
        }
      ],
      "name": "addProduct",
      "outputs": [],
      "payable": false,
      "stateMutability": "nonpayable",
      "type": "function"
    },
    {
      "constant": true,
      "inputs": [
        {
          "name": "_productId",
          "type": "uint256"
        }
      ],
      "name": "getProduct",
      "outputs": [
        {
          "name": "_id",
          "type": "uint256"
        },
        {
          "name": "_name",
          "type": "string"
        },
        {
          "name": "_category",
          "type": "string"
        },
        {
          "name": "_imageLink",
          "type": "string"
        },
        {
          "name": "_desc",
          "type": "string"
        },
        {
          "name": "",
          "type": "uint256"
        },
        {
          "name": "",
          "type": "uint8"
        }
      ],
      "payable": false,
      "stateMutability": "view",
      "type": "function"
    },
    {
      "constant": true,
      "inputs": [],
      "name": "productIndex",
      "outputs": [
        {
          "name": "",
          "type": "uint256"
        }
      ],
      "payable": false,
      "stateMutability": "view",
      "type": "function"
    },
    {
      "inputs": [],
      "payable": false,
      "stateMutability": "nonpayable",
      "type": "constructor"
    },
    {
      "anonymous": false,
      "inputs": [
        {
          "indexed": false,
          "name": "id",
          "type": "uint256"
        },
        {
          "indexed": false,
          "name": "name",
          "type": "string"
        },
        {
          "indexed": false,
          "name": "category",
          "type": "string"
        },
        {
          "indexed": false,
          "name": "imageLink",
          "type": "string"
        },
        {
          "indexed": false,
          "name": "desc",
          "type": "string"
        },
        {
          "indexed": false,
          "name": "price",
          "type": "uint256"
        },
        {
          "indexed": false,
          "name": "status",
          "type": "uint8"
        }
      ],
      "name": "ProductCreated",
      "type": "event"
    }
  ],
  "bytecode": "0x6060604052341561000f57600080fd5b60008081905550610c7e806100256000396000f300606060405260043610610057576000357c0100000000000000000000000000000000000000000000000000000000900463ffffffff16806325dfbfba1461005c578063b9db15b41461018b578063c897d5a61461038e575b600080fd5b341561006757600080fd5b610189600480803590602001908201803590602001908080601f0160208091040260200160405190810160405280939291908181526020018383808284378201915050505050509190803590602001908201803590602001908080601f0160208091040260200160405190810160405280939291908181526020018383808284378201915050505050509190803590602001908201803590602001908080601f0160208091040260200160405190810160405280939291908181526020018383808284378201915050505050509190803590602001908201803590602001908080601f016020809104026020016040519081016040528093929190818152602001838380828437820191505050505050919080359060200190919050506103b7565b005b341561019657600080fd5b6101ac6004808035906020019091905050610781565b60405180888152602001806020018060200180602001806020018781526020018660028111156101d857fe5b60ff16815260200185810385528b818151815260200191508051906020019080838360005b838110156102185780820151818401526020810190506101fd565b50505050905090810190601f1680156102455780820380516001836020036101000a031916815260200191505b5085810384528a818151815260200191508051906020019080838360005b8381101561027e578082015181840152602081019050610263565b50505050905090810190601f1680156102ab5780820380516001836020036101000a031916815260200191505b50858103835289818151815260200191508051906020019080838360005b838110156102e45780820151818401526020810190506102c9565b50505050905090810190601f1680156103115780820380516001836020036101000a031916815260200191505b50858103825288818151815260200191508051906020019080838360005b8381101561034a57808201518184015260208101905061032f565b50505050905090810190601f1680156103775780820380516001836020036101000a031916815260200191505b509b50505050505050505050505060405180910390f35b341561039957600080fd5b6103a1610b1e565b6040518082815260200191505060405180910390f35b6103bf610b24565b600080815480929190600101919050555060e06040519081016040528060005481526020018781526020018681526020018581526020018481526020018381526020016001600281111561040f57fe5b815250905080600160003373ffffffffffffffffffffffffffffffffffffffff1673ffffffffffffffffffffffffffffffffffffffff16815260200190815260200160002060008054815260200190815260200160002060008201518160000155602082015181600101908051906020019061048c929190610b85565b5060408201518160020190805190602001906104a9929190610b85565b5060608201518160030190805190602001906104c6929190610b85565b5060808201518160040190805190602001906104e3929190610b85565b5060a0820151816005015560c08201518160060160006101000a81548160ff0219169083600281111561051257fe5b021790555090505033600260008054815260200190815260200160002060006101000a81548173ffffffffffffffffffffffffffffffffffffffff021916908373ffffffffffffffffffffffffffffffffffffffff1602179055507fab878be5681153ac234da04cad1cc14dd464b79e69588b0d57760091f0a109ee6000548787878787600160405180888152602001806020018060200180602001806020018781526020018660028111156105c457fe5b60ff16815260200185810385528b818151815260200191508051906020019080838360005b838110156106045780820151818401526020810190506105e9565b50505050905090810190601f1680156106315780820380516001836020036101000a031916815260200191505b5085810384528a818151815260200191508051906020019080838360005b8381101561066a57808201518184015260208101905061064f565b50505050905090810190601f1680156106975780820380516001836020036101000a031916815260200191505b50858103835289818151815260200191508051906020019080838360005b838110156106d05780820151818401526020810190506106b5565b50505050905090810190601f1680156106fd5780820380516001836020036101000a031916815260200191505b50858103825288818151815260200191508051906020019080838360005b8381101561073657808201518184015260208101905061071b565b50505050905090810190601f1680156107635780820380516001836020036101000a031916815260200191505b509b50505050505050505050505060405180910390a1505050505050565b600061078b610c05565b610793610c05565b61079b610c05565b6107a3610c05565b6000806107ae610b24565b600160003373ffffffffffffffffffffffffffffffffffffffff1673ffffffffffffffffffffffffffffffffffffffff16815260200190815260200160002060008a815260200190815260200160002060e0604051908101604052908160008201548152602001600182018054600181600116156101000203166002900480601f0160208091040260200160405190810160405280929190818152602001828054600181600116156101000203166002900480156108ad5780601f10610882576101008083540402835291602001916108ad565b820191906000526020600020905b81548152906001019060200180831161089057829003601f168201915b50505050508152602001600282018054600181600116156101000203166002900480601f01602080910402602001604051908101604052809291908181526020018280546001816001161561010002031660029004801561094f5780601f106109245761010080835404028352916020019161094f565b820191906000526020600020905b81548152906001019060200180831161093257829003601f168201915b50505050508152602001600382018054600181600116156101000203166002900480601f0160208091040260200160405190810160405280929190818152602001828054600181600116156101000203166002900480156109f15780601f106109c6576101008083540402835291602001916109f1565b820191906000526020600020905b8154815290600101906020018083116109d457829003601f168201915b50505050508152602001600482018054600181600116156101000203166002900480601f016020809104026020016040519081016040528092919081815260200182805460018160011615610100020316600290048015610a935780601f10610a6857610100808354040283529160200191610a93565b820191906000526020600020905b815481529060010190602001808311610a7657829003601f168201915b50505050508152602001600582015481526020016006820160009054906101000a900460ff166002811115610ac457fe5b6002811115610acf57fe5b815250509050806000015181602001518260400151836060015184608001518560a001518660c00151859550849450839350829250975097509750975097509750975050919395979092949650565b60005481565b60e06040519081016040528060008152602001610b3f610c19565b8152602001610b4c610c19565b8152602001610b59610c19565b8152602001610b66610c19565b81526020016000815260200160006002811115610b7f57fe5b81525090565b828054600181600116156101000203166002900490600052602060002090601f016020900481019282601f10610bc657805160ff1916838001178555610bf4565b82800160010185558215610bf4579182015b82811115610bf3578251825591602001919060010190610bd8565b5b509050610c019190610c2d565b5090565b602060405190810160405280600081525090565b602060405190810160405280600081525090565b610c4f91905b80821115610c4b576000816000905550600101610c33565b5090565b905600a165627a7a723058207ad35ba89cf551e4875d7c27a9701381ebcbb6f76981411c0be8c934b3c5a8c40029",
  "source": "pragma solidity ^0.4.17;\n\ncontract EcommerceStore {\n    enum ProductStatus {Sold, Unsold, Buying}\n\n    event ProductCreated(\n        uint id, string name, string category, string imageLink, string desc, uint price, ProductStatus status\n    );\n\n    uint public productIndex;\n\n    mapping (address => mapping (uint => Product)) stores;\n    mapping (uint => address) productIdInStore;\n\n    struct Product {\n        uint id;\n        string name;\n        string category;\n        string imageLink;\n        string desc;\n        uint price; // in ETH\n        ProductStatus status;\n    }\n\n    function EcommerceStore() public {\n        productIndex = 0;\n    }\n\n    function addProduct(string _name, string _category, string _imageLink, string _desc, uint _price) public {\n        productIndex++;\n        Product memory product = Product(productIndex, _name, _category, _imageLink, _desc, _price, ProductStatus.Unsold);\n        stores[msg.sender][productIndex] = product;\n        productIdInStore[productIndex] = msg.sender;\n        ProductCreated(productIndex, _name, _category, _imageLink, _desc, _price, ProductStatus.Unsold);\n    }\n\n    function getProduct(uint _productId) view public returns (\n        uint _id, string _name, string _category, string _imageLink, string _desc, uint, ProductStatus\n    ) {\n        Product memory product = stores[msg.sender][_productId];\n        return (product.id, product.name, product.category, product.imageLink, product.desc, product.price, product.status);\n    }\n}\n",
  "sourcePath": "/home/tinhngo/tripolis/crypto/EcommerceStore/contracts/EcommerceStore.sol",
  "compiler": {
    "name": "solc",
    "version": "0.4.18+commit.9cf6e910.Emscripten.clang"
  },
  "schemaVersion": "1.0.1",
  "updatedAt": "2018-03-23T08:00:58.369Z"
}