{
  "contractName": "EcommerceStore",
  "abi": [
    {
      "constant": false,
      "inputs": [
        {
          "name": "_name",
          "type": "string"
        },
        {
          "name": "_category",
          "type": "string"
        },
        {
          "name": "_imageLink",
          "type": "string"
        },
        {
          "name": "_desc",
          "type": "string"
        },
        {
          "name": "_price",
          "type": "uint256"
        }
      ],
      "name": "addProduct",
      "outputs": [],
      "payable": false,
      "stateMutability": "nonpayable",
      "type": "function"
    },
    {
      "constant": true,
      "inputs": [
        {
          "name": "_productId",
          "type": "uint256"
        }
      ],
      "name": "getProduct",
      "outputs": [
        {
          "name": "_id",
          "type": "uint256"
        },
        {
          "name": "_name",
          "type": "string"
        },
        {
          "name": "_category",
          "type": "string"
        },
        {
          "name": "_imageLink",
          "type": "string"
        },
        {
          "name": "_desc",
          "type": "string"
        },
        {
          "name": "",
          "type": "uint256"
        },
        {
          "name": "",
          "type": "uint8"
        }
      ],
      "payable": false,
      "stateMutability": "view",
      "type": "function"
    },
    {
      "constant": true,
      "inputs": [],
      "name": "productIndex",
      "outputs": [
        {
          "name": "",
          "type": "uint256"
        }
      ],
      "payable": false,
      "stateMutability": "view",
      "type": "function"
    },
    {
      "inputs": [],
      "payable": false,
      "stateMutability": "nonpayable",
      "type": "constructor"
    }
  ],
  "bytecode": "0x6060604052341561000f57600080fd5b60008081905550610a72806100256000396000f300606060405260043610610057576000357c0100000000000000000000000000000000000000000000000000000000900463ffffffff16806325dfbfba1461005c578063b9db15b41461018b578063c897d5a61461038e575b600080fd5b341561006757600080fd5b610189600480803590602001908201803590602001908080601f0160208091040260200160405190810160405280939291908181526020018383808284378201915050505050509190803590602001908201803590602001908080601f0160208091040260200160405190810160405280939291908181526020018383808284378201915050505050509190803590602001908201803590602001908080601f0160208091040260200160405190810160405280939291908181526020018383808284378201915050505050509190803590602001908201803590602001908080601f016020809104026020016040519081016040528093929190818152602001838380828437820191505050505050919080359060200190919050506103b7565b005b341561019657600080fd5b6101ac6004808035906020019091905050610575565b60405180888152602001806020018060200180602001806020018781526020018660028111156101d857fe5b60ff16815260200185810385528b818151815260200191508051906020019080838360005b838110156102185780820151818401526020810190506101fd565b50505050905090810190601f1680156102455780820380516001836020036101000a031916815260200191505b5085810384528a818151815260200191508051906020019080838360005b8381101561027e578082015181840152602081019050610263565b50505050905090810190601f1680156102ab5780820380516001836020036101000a031916815260200191505b50858103835289818151815260200191508051906020019080838360005b838110156102e45780820151818401526020810190506102c9565b50505050905090810190601f1680156103115780820380516001836020036101000a031916815260200191505b50858103825288818151815260200191508051906020019080838360005b8381101561034a57808201518184015260208101905061032f565b50505050905090810190601f1680156103775780820380516001836020036101000a031916815260200191505b509b50505050505050505050505060405180910390f35b341561039957600080fd5b6103a1610912565b6040518082815260200191505060405180910390f35b6103bf610918565b600080815480929190600101919050555060e06040519081016040528060005481526020018781526020018681526020018581526020018481526020018381526020016001600281111561040f57fe5b815250905080600160003373ffffffffffffffffffffffffffffffffffffffff1673ffffffffffffffffffffffffffffffffffffffff16815260200190815260200160002060008054815260200190815260200160002060008201518160000155602082015181600101908051906020019061048c929190610979565b5060408201518160020190805190602001906104a9929190610979565b5060608201518160030190805190602001906104c6929190610979565b5060808201518160040190805190602001906104e3929190610979565b5060a0820151816005015560c08201518160060160006101000a81548160ff0219169083600281111561051257fe5b021790555090505033600260008054815260200190815260200160002060006101000a81548173ffffffffffffffffffffffffffffffffffffffff021916908373ffffffffffffffffffffffffffffffffffffffff160217905550505050505050565b600061057f6109f9565b6105876109f9565b61058f6109f9565b6105976109f9565b6000806105a2610918565b600160003373ffffffffffffffffffffffffffffffffffffffff1673ffffffffffffffffffffffffffffffffffffffff16815260200190815260200160002060008a815260200190815260200160002060e0604051908101604052908160008201548152602001600182018054600181600116156101000203166002900480601f0160208091040260200160405190810160405280929190818152602001828054600181600116156101000203166002900480156106a15780601f10610676576101008083540402835291602001916106a1565b820191906000526020600020905b81548152906001019060200180831161068457829003601f168201915b50505050508152602001600282018054600181600116156101000203166002900480601f0160208091040260200160405190810160405280929190818152602001828054600181600116156101000203166002900480156107435780601f1061071857610100808354040283529160200191610743565b820191906000526020600020905b81548152906001019060200180831161072657829003601f168201915b50505050508152602001600382018054600181600116156101000203166002900480601f0160208091040260200160405190810160405280929190818152602001828054600181600116156101000203166002900480156107e55780601f106107ba576101008083540402835291602001916107e5565b820191906000526020600020905b8154815290600101906020018083116107c857829003601f168201915b50505050508152602001600482018054600181600116156101000203166002900480601f0160208091040260200160405190810160405280929190818152602001828054600181600116156101000203166002900480156108875780601f1061085c57610100808354040283529160200191610887565b820191906000526020600020905b81548152906001019060200180831161086a57829003601f168201915b50505050508152602001600582015481526020016006820160009054906101000a900460ff1660028111156108b857fe5b60028111156108c357fe5b815250509050806000015181602001518260400151836060015184608001518560a001518660c00151859550849450839350829250975097509750975097509750975050919395979092949650565b60005481565b60e06040519081016040528060008152602001610933610a0d565b8152602001610940610a0d565b815260200161094d610a0d565b815260200161095a610a0d565b8152602001600081526020016000600281111561097357fe5b81525090565b828054600181600116156101000203166002900490600052602060002090601f016020900481019282601f106109ba57805160ff19168380011785556109e8565b828001600101855582156109e8579182015b828111156109e75782518255916020019190600101906109cc565b5b5090506109f59190610a21565b5090565b602060405190810160405280600081525090565b602060405190810160405280600081525090565b610a4391905b80821115610a3f576000816000905550600101610a27565b5090565b905600a165627a7a72305820006dda0675435f23443bbe2335115320191eef88bfae8cf25f022f340f3e392c0029",
  "source": "pragma solidity ^0.4.17;\n\ncontract EcommerceStore {\n    enum ProductStatus {Sold, Unsold, Buying}\n\n    uint public productIndex;\n\n    mapping (address => mapping (uint => Product)) stores;\n    mapping (uint => address) productIdInStore;\n\n    struct Product {\n        uint id;\n        string name;\n        string category;\n        string imageLink;\n        string desc;\n        uint price;\n        ProductStatus status;\n    }\n\n    \n\n    function EcommerceStore() public {\n        productIndex = 0;\n    }\n\n    function addProduct(string _name, string _category, string _imageLink, string _desc, uint _price) public {\n        productIndex++;\n        Product memory product = Product(productIndex, _name, _category, _imageLink, _desc, _price, ProductStatus.Unsold);\n        stores[msg.sender][productIndex] = product;\n        productIdInStore[productIndex] = msg.sender;\n    }\n\n    function getProduct(uint _productId) view public returns (uint _id, string _name, string _category, string _imageLink, string _desc, uint, ProductStatus) {\n        Product memory product = stores[msg.sender][_productId];\n        return (product.id, product.name, product.category, product.imageLink, product.desc, product.price, product.status);\n    }\n}\n",
  "sourcePath": "/home/tinhngo/tripolis/crypto/EcommerceStore/contracts/EcommerceStore.sol",
  "compiler": {
    "name": "solc",
    "version": "0.4.18+commit.9cf6e910.Emscripten.clang"
  },
  "schemaVersion": "1.0.1",
  "updatedAt": "2018-03-23T03:09:40.772Z"
}